:0400000081315A29C7
:100008007E1480314E018D1F0A280B28E4284001F8
:100018005103031D10281128D62844010E108D0104
:100028008C010E148C318B24803146010C0E0F3953
:10003800F0000D0EF039F0040D0E0F39F1007C3090
:10004800F2009230F3008E3117268031700840019B
:10005800D30010305302031C32283328772883300A
:10006800530203183828392877285308C400C501D3
:10007800C435C50DEA30C6002230C700440846071B
:1000880086004508473D8700403FCC00413FCD00F2
:100098001A114C08F13EC400FF304D3DC50045081B
:1000A80044010D02031D5C284001440844010C0270
:1000B80003185F2860286C2840014D08460191000C
:1000C80040014C08460190008C319A2480317C28EC
:1000D8008C319024803140019A14A030890B722809
:1000E80040019A107C288C319024803140011A11EB
:1000F80040015008031D81288228AD286230530230
:10010800031C8728882895280130C4004408D20792
:100118005203031D90289128AD288C31B5248031D5
:10012800AD2863305302031C9A289B28A628013067
:10013800C4004408D20702305206031DA428A5288B
:10014800AD28912864305302031CAB28AC28AD2895
:10015800912840014F08031DB228B328C328563000
:100168005302031CB828B928BB281814D6285330C2
:1001780053020318C028C128D6281810D6284F03C0
:10018800031DC728C828D6281F305302031CCD28B2
:10019800CE28CF28B9281C3053020318D428D528D4
:1001A800D628C1285108031DDA28DB28E228440193
:1001B8008C018D010E144001D101D10A4E018D131D
:1001C8008E1FE728E828FD28A030890BE9288C3104
:1001D8009024803140019A108C31A324803128303A
:1001E800400153020318F928FA28FD288131A22179
:1001F80080317E013F1D012902293E29400151031A
:10020800031D072908293C2944010D084001CB009A
:1002180044010C084001CA0019305302031815297B
:1002280016292F294B08C5004A08C400C435C50D36
:10023800C435C50D4A084802C6004B08493BC700EB
:1002480045084702031D2A294408460203182D2998
:100258002E292F291A158C31A324803128304001EA
:1002680053020318382939293C298131A2218031C8
:100278007E013F114E018D1E422943295729400115
:10028800D10144010E108C018D0146018C018D01B4
:10029800900191014E018D12400118108C3190246B
:1002A800803140019A1064007E10090081315C2978
:1002B8002930840085308500613086002130870030
:1002C8000130FF0089308C31D7248131F830840027
:1002D80087308500DF308600003087000030FF005F
:1002E80006308C31D7248131EA30840022308500F1
:1002F8000630FE000130FF008C31CB248131FC0137
:10030800FD01CC01CD01CE01CF01D001D101D20137
:10031800D3014101E501E601E701E801E9012030E7
:100328008400013085002030FE000030FF008C3151
:10033800CB2481317E1040018C31F52C41016408B9
:100348001C3E840090300318013E850000084001DF
:10035800BF0041016208183E840090300318013E36
:10036800850000084001A300410164081C3E840088
:1003780090300318013E8500000840012307C000A3
:100388003730C1005030C200F430B7000130B80037
:10039800410163084001A300A401A335A40D08305E
:1003A800230784001030243D80388500003FB900C1
:1003B800013FBA003A08BC003908BB004101610896
:1003C8004001A300A401A335A40D00302307840035
:1003D8001030243D80388500003FBD00013FBE003D
:1003E8003F084002F000F101031CF10339080C3EFC
:1003F800F200FE303A3DF3008E3117268131700845
:100408004001B5001930F0000030F1003D083B0212
:10041800F2003E083C3BF3008E311726813170080C
:100428004001B6000F30C300302A4308A300A401DE
:10043800A335A40DEA30A5002230A600230825071D
:1004480086002408263D87003708C03F3808C13F8A
:100458000130A3002308C30743083F020318352AC5
:10046800362A192A3F08013EC3006B2A4308A30015
:10047800A401A335A40DE830A5002230A600230866
:10048800250786002408263D8700403FA700413FF6
:10049800A80035082707A90028080318280AAA0071
:1004A8004308AB00AC01AB35AC0DEA30AD002230EF
:1004B800AE002B082D0786002C082E3D8700290842
:1004C800C03F2A08C13F0130A3002308C3074308DF
:1004D80040020318702A712A3A2A4008013EC300D4
:1004E8008C2A4308A300A401A335A40DEA30A50073
:1004F8002230A6002308250786002408263D870009
:100508003B08C03F3C08C13F0130A3002308C30794
:10051800430841020318912A922A752A4108013E8C
:10052800C300C72A4308A300A401A335A40DE830DB
:10053800A5002230A6002308250786002408263DAA
:100548008700403FA700413FA8002808AA003608B6
:100558002702A900031CAA034308AB00AC01AB3572
:10056800AC0DEA30AD002230AE002B082D07860016
:100578002C082E3D87002908C03F2A08C13F0130BA
:10058800A3002308C307430842020318CC2ACD2A34
:10059800962A4208013EC30083304302031CD52A31
:1005A800D62AD72AEF2A4308A300A401A335A40D0D
:1005B800EA30A5002230A600230825078600240873
:1005C800263D87003D08C03F3E08C13F0130A300DB
:1005D8002308C307D02A0F30C3004308A300A4018F
:1005E800A335A40DEA30A5002230A600230825076C
:1005F80086002408263D8700AC30A7000D30A800EF
:10060800403F2702A900413F283BAA00AA36A90C6F
:100618002908B2002A08B300B4014308A300A401C2
:100628002308F0002408F1000330F2000030F30042
:100638008D315F25813161304001A5002130A60050
:100648007008250786007108263D8700403FF600A0
:10065800413FF700423FF8003208F9003308FA003A
:100668003408FB008D31EA25813176084001A70066
:100678007708A8007808A9000A30A936A80CA70CA2
:10068800890B412B2708AF002808B0002908B100C2
:100698004308A300A401A335A40DEA30A500223025
:1006A800A6002308250786002408263D87002F0872
:1006B800C03F3008C13F0130A3002308C30783307F
:1006C8004302031C682B692BF12A080041016408C6
:1006D8001C3E840090300318013E85000008CB00C2
:1006E8006208183E840090300318013E8500000817
:1006F800AF0064081C3E840090300318013E85005A
:1007080000082F07CC003730CD005030CE00F43031
:10071800C3000130C4006308AF00B001AF35B00DAD
:1007280008302F0784001030303D80388500003FA6
:10073800C500013FC6004608C8004508C700610853
:10074800AF00B001AF35B00D00302F078400103076
:10075800303D80388500003FC900013FCA004B0882
:100768004C02A000A101031CA10345080C3EA200F5
:10077800FE30463DA3008E315326833141012008C7
:10078800C1001930A0000030A10049084702A200AA
:100798004A08483BA3008E31532683314101200883
:1007A800C2000F30CF00EF2B4F08AF00B001AF35BC
:1007B800B00DEA30B1002230B2002F0831078600B0
:1007C8003008323D87004308C03F4408C13F01302C
:1007D800AF002F08CF074F084B020318F42BF52B57
:1007E800D82B4B08013ECF002A2C4F08AF00B00190
:1007F800AF35B00DE830B1002230B2002F08310714
:1008080086003008323D8700403FB300413FB400C6
:1008180041083307B50034080318340AB6004F08F6
:10082800B700B801B735B80DEA30B9002230BA00C0
:1008380037083907860038083A3D87003508C03F31
:100848003608C13F0130AF002F08CF074F084C02D0
:1008580003182F2C302CF92B4C08013ECF004B2CC1
:100868004F08AF00B001AF35B00DEA30B10022300B
:10087800B2002F08310786003008323D870047084C
:10088800C03F4808C13F0130AF002F08CF074F08CD
:100898004D020318502C512C342C4D08013ECF002A
:1008A800862C4F08AF00B001AF35B00DE830B1006D
:1008B8002230B2002F08310786003008323D870009
:1008C800403FB300413FB4003408B6004208330249
:1008D800B500031CB6034F08B700B801B735B80D0B
:1008E800EA30B9002230BA003708390786003808DC
:1008F8003A3D87003508C03F3608C13F0130AF0098
:100908002F08CF074F084E0203188B2C8C2C552C20
:100918004E08013ECF0083304F02031C942C952CC7
:10092800962CAE2C4F08AF00B001AF35B00DEA30B1
:10093800B1002230B2002F08310786003008323D5E
:1009480087004908C03F4A08C13F0130AF002F085F
:10095800CF078F2C0F30CF004F08AF00B001AF3555
:10096800B00DEA30B1002230B2002F0831078600FE
:100978003008323D8700AC30B3000D30B400403F42
:100988003302B500413F343BB600B636B50C3508E6
:10099800BE003608BF00C0014F08AF00B0012F08E5
:1009A800A0003008A1000330A2000030A3008D3160
:1009B8007E25833161304101B1002130B200200829
:1009C800310786002108323D8700403FA600413F9D
:1009D800A700423FA8003E08A9003F08AA00400817
:1009E800AB008D31BF25833141012608B3002708AC
:1009F800B4002808B5000A30B536B40CB30C890B1E
:100A0800002D3308BB003408BC003508BD004F0872
:100A1800AF00B001AF35B00DEA30B1002230B200FE
:100A28002F08310786003008323D87003B08C03F59
:100A38003C08C13F0130AF002F08CF0783304F0279
:100A4800031C272D282DB02C080000340034003456
:100A580000340034003400340034003400340034EE
:100A680000340034003400340034003400340034DE
:100A780000340034003400340034003400340034CE
:100A880000340034003400340034003400340034BE
:100A980000340034003400340034003400340034AE
:100AA80000340034E4340834003455340834003455
:100AB800D834073400346834073400340434073435
:100AC8000034AB340634003459340634003410345E
:100AD80006340034CC34053400348E340534003404
:100AE800553405340034213405340034F0340434EA
:100AF8000034C33404340034993404340034723478
:100B0800043400344D34043400342B3404340034B9
:100B18000A3404340034EC3403340034CF3403345E
:100B28000034B434033400349B3403340034823446
:100B3800033400346B340334003455340334003444
:100B48004134033400342D34033400341A3403346C
:100B58000034083403340034F73402340034E63403
:100B680002340034D63402340034C734023400343A
:100B7800B93402340034AB34023400349D340234C6
:100B8800003490340234003484340234003478342D
:100B9800023400346D3402340034623402340034D8
:100BA8005734023400344D340234003443340234B0
:100BB80000343934023400343034023400342734F9
:100BC800023400341E340234003415340234003444
:100BD8000D3402340034053402340034FD34013459
:100BE8000034F63401340034EF3401340034E8348E
:100BF80001340034E13401340034DA34013400348F
:100C0800D43401340034CD3401340034C7340134D1
:100C18000034C13401340034BB3401340034B634F8
:100C280001340034B03401340034AB3401340034BE
:100C3800A53401340034A034013400349B34013429
:100C480000349634013400349234013400348D3445
:100C580001340034883401340034843401340034DD
:100C68008034013400347B34013400347734013467
:100C780000347334013400346F34013400346B347D
:100C880001340034673401340034643401340034EE
:100C98006034013400345C34013400345934013494
:100CA80000345534013400345234013400344F34A4
:100CB800013400344B3401340034483401340034F6
:100CC8004534013400344234013400343F340134B3
:100CD80000343C34013400343934013400343634BF
:100CE80001340034343401340034313401340034F4
:100CF8002E34013400342B340134003429340134C7
:100D080000342634013400342434013400342134CE
:100D1800013400341F34013400341C3401340034ED
:100D28001A340134003418340134003416340134D0
:100D380000341334013400341134013400340F34D6
:100D4800013400340D34013400340B3401340034E0
:100D58000934013400340734013400344101B2004D
:100D68002B0886008701403FAD00413FAE002D08AB
:100D780084002E0885001200253A031DC42EC52EB6
:100D8800892F2B088600870101308107413103181C
:100D9800810AE501E6010310003003180130E9007B
:100DA800FF30E700FF30E8002B0886008701403F4E
:100DB800B300413FB40033088400340885001200B2
:100DC800643A0319E82EE92EF32E33088400340818
:100DD80085001200693A031DF22EF32E7F2F2C088E
:100DE8008600870101088400850102308107003FE1
:100DF800B500013FB6003308013EAD000030343D78
:100E0800AE002B08860087012D08C03F2E08C13F81
:100E18002030B900B61B112F132F0130142F0030CA
:100E2800B1000130B9023908203E86000130870040
:100E38000A30A0000030A1003608A3003508A2003F
:100E48008E31E226863141012108A8002008A7003A
:100E58008C31E324863141012708303E81000A3075
:100E6800A0000030A1003608A3003508A2008F3189
:100E78003627863141012108B6002008B50035081B
:100E880036040319482F492F4E2F3908031D4D2FBB
:100E98004E2F152F39080319522F532F782F310849
:100EA8000319572F582F782F0130B9023908203EDF
:100EB8008600013087002D308100782F3908203EC8
:100EC8008600013087000108AD00AE012D08A000A2
:100ED8002E08A1003208A2008E31902686310130FA
:100EE8004101AD002D08B90720303906031D7D2FBB
:100EF8007E2F622FA12F41012B0886008701013028
:100F0800810741310318810AA12F2B088600870128
:100F1800403FAD00413FAE002D0884002E088500FB
:100F28000008AF00B0012F08A0003008A100320867
:100F3800A2008E31902686317F2F0800A82FCF017E
:100F4800CF0AB82FCF01B82F003040018E1A0130D8
:100F5800003A0319A32F013A0319A62FB82FD0017D
:100F6800D00AC22FD001C22F00300C1A0130003A2B
:100F78000319B32F013A0319B62FC22F0E0E0139E8
:100F88004101A0000130A035890BC72F40010E0C8C
:100F98004101A100A10C210C01392007E400400106
:100FA8000E0E890C890C01394101A0000130A035D1
:100FB800890BDB2F40010E0D0E0D01394101200771
:100FC800E3000330E20040010D0E890C01394101B4
:100FD800A0000130A035890BEE2F40010D0E01391C
:100FE80041012007E1000800283497340334033412
:060FF8000334023408007E
:101916004E01971346018E0108004E0198134601A9
:10192600920108004E0198134601920108004E01EB
:1019360098138E138830460192004E0198170800BE
:101946004E0197138D13843046018E004E01971772
:1019560008004E0197138D13843046018E004E0108
:10196600971708008C3190248C3140011A15D2014A
:101976008C31A3248C3108004101A00042019E1C39
:10198600C52CC62CC12C4101200842019A00080032
:101996006400800101310130FE020030FF3B7F0808
:1019A6007E04031DCC2C0034FE0012001E00013004
:1019B600FE020030FF3B7F087E04031DD82C003456
:1019C6004101A81BE72CE82CE92CF42C2709A900D7
:1019D6002809AA00A90A0319AA0A2908A7002A0899
:1019E600A80008008F3196278C3140011A118731E3
:1019F600A2278C3183316A238C318C31AC248C3113
:101A06008731A2278C3164008D319E258C31032DC0
:101A160081315A291B2D21088400220885000008DF
:101A26008C31BF248D3101304101A1070030A23D28
:101A3600410121088400220885001200031D242D7F
:101A4600252D0E2D08004101BE003B08C0003A08B6
:101A5600BF00352DBF30AB003C08AC003E088631D8
:101A6600B2268D3141013F088400400885001200EE
:101A7600031D3E2D3F2D2D2DBA01BB01080041014E
:101A8600C700C330C6004708C800CA01CB01D10150
:101A9600D2014208BB004108BA00C630BC00C830BB
:101AA6008D3126258D3141014A084707C500450875
:101AB6008600870181010800F401F501701C642D80
:101AC600652D692D7208F4077308F53D0130F2356E
:101AD600F30D890B6A2D0130F136F00C890B6F2D51
:101AE60070087104031D782D792D612D7508F1009C
:101AF6007408F00008004101A401A501201C842DF2
:101B0600852D892D2208A4072308A53D0130A2357D
:101B1600A30D890B8A2D0130A136A00C890B8F2DC0
:101B260020082104031D982D992D812D2508A1003B
:101B36002408A000080023304101C1009030C200F3
:101B46006008D300D4015308C3005408C400D5303C
:101B56008D3142258D31D5304101A1000030A200E2
:101B66008D310D258D3120304101A1009030A2002C
:101B76008D310D258D31080000304101AC0000305B
:101B8600AD000030AE00261CC92DCA2DD02D290867
:101B9600AC072A08AD3D2B08AE3D0130A935AA0D8C
:101BA600AB0D890BD12D0130A836A70CA60C890BDD
:101BB600D72D280827042604031DE22DE32DC62D64
:101BC6002C08A6002D08A7002E08A8000800003043
:101BD6004001A0000030A1000030A200761CF42DC8
:101BE600F52DFC2D79084001A0077A08A13D7B0858
:101BF600A23D0130F935FA0DFB0D890BFD2D0130A3
:101C0600F836F70CF60C890B032E78087704760461
:101C1600031D0E2E0F2EF12D40012008F60021087F
:101C2600F7002208F8000800F501F60170087104B3
:101C360003191E2E1F2E4E2EF701F70A2B2E0130EA
:101C4600F035F10D890B232E0130F4007408F707E7
:101C5600F11F2E2E2F2E222E0130F535F60D890B73
:101C6600302E71087302031D3A2E70087202031C8F
:101C76003D2E3E2E432E7008F2027108F33B75147A
:101C86000130F136F00C890B442E0130F702031DAA
:101C96004D2E4E2E2F2E7608F1007508F000080006
:101CA6004101A501A6012008210403195B2E5C2E23
:101CB6008B2EA701A70A682E0130A035A10D890B2E
:101CC600602E0130A4002408A707A11F6B2E6C2EDE
:101CD6005F2E0130A535A60D890B6D2E2108230236
:101CE600031D772E20082202031C7A2E7B2E802EBF
:101CF6002008A2022108A33B25140130A136A00C1E
:101D0600890B812E0130A702031D8A2E8B2E6C2E85
:101D16002608A1002508A000080041012208031991
:101D2600952E962E9B2E2208031D9A2E9B2EA02EB4
:101D360020088731FE278E31E12E2208093E8600D3
:101D46008701160001040319A92EAA2EC82E2208FF
:101D5600093E86008701403FA300413FA4002208B8
:101D6600023E86008701403FA500413FA6002608A7
:101D7600803AA7002408803A2702031DC42E2308B0
:101D860025020318C72EC82EE12E4101220886001F
:101D960087012208023E8400850100080107A3008E
:101DA600230886008701200881002208023E86005B
:101DB60087010130810741310318810A080041017A
:101DC600A601A31FE72EE82EEF2EA209A309A20A59
:101DD6000319A30AA601A60AA11FF22EF32EF82EB6
:101DE600A009A109A00A0319A10A200821040319C0
:101DF600FD2EFE2E272FA501A50A0A2F0130A0359C
:101E0600A10D890B022F0130A4002408A507A11FEC
:101E16000D2F0E2F012F21082302031D142F20083A
:101E26002202031C172F182F1C2F2008A20221089C
:101E3600A33B0130A136A00C890B1D2F0130A50252
:101E4600031D262F272F0E2F260803192B2F2C2F85
:101E5600312FA209A309A20A0319A30A2308A10084
:101E66002208A00008004101A601A11F3B2F3C2F1C
:101E7600432FA009A109A00A0319A10AA601A60ACF
:101E8600A31F462F472F502FA209A309A20A031901
:101E9600A30A0130A4002408A606A701A801200869
:101EA60021040319572F582F872FA501A50A642F40
:101EB6000130A035A10D890B5C2F0130A400240848
:101EC600A507A11F672F682F5B2F0130A735A80D27
:101ED600890B692F21082302031D732F2008220274
:101EE600031C762F772F7C2F2008A2022108A33B04
:101EF60027140130A136A00C890B7D2F0130A502D5
:101F0600031D862F872F682F260803198B2F8C2FEA
:101F1600912FA709A809A70A0319A80A2808A1004A
:101F26002708A000080040305101910005309300B9
:101F3600920140018C018D018E01980199019A014F
:101F46007E01B801C301CE01343040019200B030A9
:101F56009300F930940034307E01BC00B030C700E5
:101F6600F930D20001304401910030308E008C01EE
:101F76008D0146018F0193018C018D019001910124
:101F86007E013E1555307D018F00AA308F000F105F
:101F96001030A1001130A20002307E01A1000F30E6
:101FA6007D01CB0005307E019E0055307D018F00FE
:101FB600AA308F000F1442019F019D019E019B01D3
:101FC6009C0140309F0080309D0022309E003330BF
:101FD6009B009C01133050018C004E018C018D0139
:101FE6008E018B170B1797179817971616168C31A5
:101FF60095248F3140019A100800DC3405341434DE
:1020060005344C34043484340334C434093434344D
:102016000834A4340634143405347C349234313410
:1020260031342C3435343034003428341E341434EE
:102036000A342D34233419340F340D340A34003461
:062046002534643400346F
:020000040001F9
:04000E00CF3FE93FB8
:04001400FF3FFF3F6C
:00000001FF
