:0400000081315A29C7
:100008007E1480314E018D1F0A280B28E4284001F8
:100018005003031D10281128D62844010E108D0105
:100028008C010E148F310627803146010C0E0F39D2
:10003800F0000D0EF039F0040D0E0F39F1007C3090
:10004800F2009230F3008731982780317008400120
:10005800D20010305202031C32283328772883300C
:10006800520203183828392877285208C400C501D5
:10007800C435C50DEA30C6002230C700440846071B
:1000880086004508473D8700403FCC00413FCD00F2
:100098001A114C08F13EC400FF304D3DC50045081B
:1000A80044010D02031D5C284001440844010C0270
:1000B80003185F2860286C2840014D08460191000C
:1000C80040014C08460190008F31152780317C286B
:1000D8008F310B27803140019A14A030890B722888
:1000E80040019A107C288F310B27803140011A116A
:1000F80040014F08031D81288228AD286230520232
:10010800031C8728882895280130C4004408D10793
:100118005103031D90289128AD288F313027803155
:10012800AD2863305202031C9A289B28A628013068
:10013800C4004408D10702305106031DA428A5288D
:10014800AD28912864305202031CAB28AC28AD2896
:10015800912840014E08031DB228B328C328563001
:100168005202031CB828B928BB281814D6285330C3
:1001780052020318C028C128D6281810D6284E03C2
:10018800031DC728C828D6281F305202031CCD28B3
:10019800CE28CF28B9281C3052020318D428D528D5
:1001A800D628C1285008031DDA28DB28E228440194
:1001B8008C018D010E144001D001D00A4E018D131F
:1001C8008E1FE728E828FD28A030890BE9288F3101
:1001D8000B27803140019A108F311E27803128303B
:1001E800400152020318F928FA28FD28813190218C
:1001F80080317E013F1D012902293E29400150031B
:10020800031D072908293C2944010D084001CB009A
:1002180044010C084001CA0019305202031815297C
:1002280016292F294B08C5004A08C400C435C50D36
:10023800C435C50D4A084802C6004B08493BC700EB
:1002480045084702031D2A294408460203182D2998
:100258002E292F291A158F311E2780312830400169
:1002680052020318382939293C29813190218031DB
:100278007E013F114E018D1E422943295729400115
:10028800D00144010E108C018D0146018C018D01B5
:10029800900191014E018D12400118108F310B27EA
:1002A800803140019A1064007E10090081315C2978
:1002B8001730840085308500613086002130870042
:1002C8000130FF0089308F3152278131023084009C
:1002D8008F308500D0308600003087000030FF0066
:1002E80004308F3152278131EA3084002230850072
:1002F8000630FE000130FF008F3146278131FC01B6
:10030800FD01CC01CD01CE01CF01D001D101D20137
:100318007E1040018F31772F410153081F3E840022
:1003280090300318013E850000084001BF004101DC
:1003380051081B3E840090300318013E85000008D8
:100348004001A300410153081F3E84009030031868
:10035800013E8500000840012307C0003730C10076
:100368005030C200F430B7000130B80041015208E3
:100378004001A300A401A335A40D13302307840072
:100388001030243D80388500003FB900013FBA0095
:100398003A08BC003908BB00410150084001A300DD
:1003A800A401A335A40D0B30230784001030243D8D
:1003B80080388500003FBD00013FBE003F08400275
:1003C800F000F101031CF10339080C3EF200FE3085
:1003D8003A3DF30087319827813170084001B50014
:1003E8001930F0000030F1003D083B02F2003E08F1
:1003F8003C3BF30087319827813170084001B600F3
:100408000F30C3001E2A4308A300A401A335A40D7E
:10041800EA30A5002230A600230825078600240814
:10042800263D87003708C03F3808C13F0130A30088
:100438002308C30743083F020318232A242A072A4C
:100448003F08013EC300592A4308A300A401A3356D
:10045800A40DE830A5002230A60023082507860051
:100468002408263D8700403FA700413FA8003508E3
:100478002707A90028080318280AAA004308AB0080
:10048800AC01AB35AC0DEA30AD002230AE002B0824
:100498002D0786002C082E3D87002908C03F2A0812
:1004A800C13F0130A3002308C307430840020318D3
:1004B8005E2A5F2A282A4008013EC3007A2A430898
:1004C800A300A401A335A40DEA30A5002230A6009C
:1004D8002308250786002408263D87003B08C03FDF
:1004E8003C08C13F0130A3002308C3074308410269
:1004F80003187F2A802A632A4108013EC300B52ACF
:100508004308A300A401A335A40DE830A5002230B8
:10051800A6002308250786002408263D8700403FBB
:10052800A700413FA8002808AA0036082702A9000A
:10053800031CAA034308AB00AC01AB35AC0DEA3091
:10054800AD002230AE002B082D0786002C082E3D6A
:1005580087002908C03F2A08C13F0130A3002308AB
:10056800C307430842020318BA2ABB2A842A42084E
:10057800013EC30083304302031CC32AC42AC52A90
:10058800DD2A4308A300A401A335A40DEA30A50081
:100598002230A6002308250786002408263D870068
:1005A8003D08C03F3E08C13F0130A3002308C307F0
:1005B800BE2A0F30C3004308A300A401A335A40D2D
:1005C800EA30A5002230A600230825078600240863
:1005D800263D8700AC30A7000D30A800403F270219
:1005E800A900413F283BAA00AA36A90C2908B20055
:1005F8002A08B300B4014308A300A4012308F000AB
:100608002408F1000330F2000030F3008F31942702
:10061800813161304001A5002130A600700825070E
:1006280086007108263D8700403FF600413FF700ED
:10063800423FF8003208F9003308FA003408FB009A
:100648008F31D327813176084001A7007708A800A9
:100658007808A9000A30A936A80CA70C890B2F2BFB
:100668002708AF002808B0002908B1004308A300F4
:10067800A401A335A40DEA30A5002230A600230862
:10068800250786002408263D87002F08C03F30082C
:10069800C13F0130A3002308C30783304302031C72
:1006A800562B572BDF2A0800410153081F3E8400B0
:1006B80090300318013E85000008CB0051081B3E0E
:1006C800840090300318013E85000008AF005308ED
:1006D8001F3E840090300318013E850000082F0754
:1006E800CC003730CD005030CE00F430C30001309C
:1006F800C4005208AF00B001AF35B00D13302F075A
:1007080084001030303D80388500003FC500013F2F
:10071800C6004608C8004508C7005008AF00B00129
:10072800AF35B00D0B302F0784001030303D8038C6
:100738008500003FC900013FCA004B084C02A000D9
:10074800A101031CA10345080C3EA200FE30463D52
:10075800A30087315B27833141012008C10019308C
:10076800A0000030A10049084702A2004A08483BFF
:10077800A30087315B27833141012008C2000F3075
:10078800CF00DD2B4F08AF00B001AF35B00DEA3018
:10079800B1002230B2002F08310786003008323D00
:1007A80087004308C03F4408C13F0130AF002F080D
:1007B800CF074F084B020318E22BE32BC62B4B083D
:1007C800013ECF00182C4F08AF00B001AF35B00D77
:1007D800E830B1002230B2002F0831078600300817
:1007E800323D8700403FB300413FB4004108330722
:1007F800B50034080318340AB6004F08B700B8012A
:10080800B735B80DEA30B9002230BA0037083907D1
:10081800860038083A3D87003508C03F3608C13F92
:100828000130AF002F08CF074F084C0203181D2CCA
:100838001E2CE72B4C08013ECF00392C4F08AF0087
:10084800B001AF35B00DEA30B1002230B2002F0848
:10085800310786003008323D87004708C03F480806
:10086800C13F0130AF002F08CF074F084D020318D2
:100878003E2C3F2C222C4D08013ECF00742C4F08F3
:10088800AF00B001AF35B00DE830B1002230B20092
:100898002F08310786003008323D8700403FB300FB
:1008A800413FB4003408B60042083302B500031CC7
:1008B800B6034F08B700B801B735B80DEA30B9002C
:1008C8002230BA0037083907860038083A3D8700D1
:1008D8003508C03F3608C13F0130AF002F08CF07A9
:1008E8004F084E020318792C7A2C432C4E08013EEF
:1008F800CF0083304F02031C822C832C842C9C2C29
:100908004F08AF00B001AF35B00DEA30B10022306A
:10091800B2002F08310786003008323D87004908A9
:10092800C03F4A08C13F0130AF002F08CF077D2CD8
:100938000F30CF004F08AF00B001AF35B00DEA302F
:10094800B1002230B2002F08310786003008323D4E
:100958008700AC30B3000D30B400403F3302B5001F
:10096800413F343BB600B636B50C3508BE003608F4
:10097800BF00C0014F08AF00B0012F08A000300829
:10098800A1000330A2000030A3008F31B3278331C8
:1009980061304101B1002130B200200831078600E2
:1009A8002108323D8700403FA600413FA700423F53
:1009B800A8003E08A9003F08AA004008AB008731FC
:1009C800D427833141012608B3002708B40028083A
:1009D800B5000A30B536B40CB30C890BEE2C3308CD
:1009E800BB003408BC003508BD004F08AF00B0019B
:1009F800AF35B00DEA30B1002230B2002F08310710
:100A080086003008323D87003B08C03F3C08C13FA4
:100A18000130AF002F08CF0783304F02031C152D7C
:100A2800162D9E2C080000340034003400340034A5
:100A3800003400340034003400340034003400340E
:100A480000340034003400340034003400340034FE
:100A580000340034003400340034003400340034EE
:100A680000340034003400340034003400340034DE
:100A780000340034003400340034003400340034CE
:100A8800E43408340034553408340034D834073496
:100A98000034683407340034043407340034AB3489
:100AA8000634003459340634003410340634003423
:100AB800CC34053400348E340534003455340534D0
:100AC8000034213405340034F03404340034C334A1
:100AD8000434003499340434003472340434003457
:100AE8004D34043400342B34043400340A340434D0
:100AF8000034EC3403340034CF3403340034B434D9
:100B0800033400349B340334003482340334003417
:100B18006B34033400345534033400344134033423
:100B280000342D34033400341A34033400340834C8
:100B380003340034F73402340034E6340234003429
:100B4800D63402340034C73402340034B9340234A1
:100B58000034AB34023400349D3402340034903411
:100B680002340034843402340034783402340034DB
:100B78006D340234003462340234003457340234A1
:100B880000344D34023400344334023400343934F0
:100B98000234003430340234003427340234003450
:100BA8001E34023400341534023400340D34023457
:100BB8000034053402340034FD3401340034F63492
:100BC80001340034EF3401340034E83401340034A3
:100BD800E13401340034DA3401340034D4340134DB
:100BE8000034CD3401340034C73401340034C13406
:100BF80001340034BB3401340034B63401340034D9
:100C0800B03401340034AB3401340034A534013439
:100C18000034A034013400349B3401340034963459
:100C2800013400349234013400348D3401340034FA
:100C3800883401340034843401340034803401347D
:100C480000347B3401340034773401340034733495
:100C5800013400346F34013400346B34013400340F
:100C680067340134003464340134003460340134AE
:100C780000345C34013400345934013400345534C0
:100C8800013400345234013400344F340134003418
:100C98004B340134003448340134003445340134D1
:100CA80000344234013400343F34013400343C34DD
:100CB800013400343934013400343634013400341A
:100CC8003434013400343134013400342E340134E6
:100CD80000342B34013400342934013400342634F0
:100CE8000134003424340134003421340134003414
:100CF8001F34013400341C34013400341A340134F4
:100D080000341834013400341634013400341334F8
:100D1800013400341134013400340F340134003408
:100D28000D34013400340B340134003409340134F7
:100D3800003407340134003440305101910005304B
:100D48009300920140018C018D018E019801990157
:100D58009A017E01B801C301CE01343040019200EE
:100D6800B0309300F930940034307E01BC00B030CC
:100D7800C700F930D20001304401910030308E00B4
:100D88008C018D0146018F0193018C018D01900129
:100D980091017E013E1555307D018F00AA308F00EC
:100DA8000F101030A1001130A20002307E01A10006
:100DB8000F307D01CB0005307E019E0055307D014E
:100DC8008F00AA308F000F14403042019F008030FE
:100DD8009D0022309E0033309B009C01133050014F
:100DE8008C004E018C018D018E018B170B17971704
:100DF8009817971616168F311027863140019A10CA
:100E080008000B2FCE01CE0A1B2FCE011B2F00305E
:100E180040018E1A0130003A0319062F013A0319CE
:100E2800092F1B2FCF01CF0A252FCF01252F0030E7
:100E38000C1A0130003A0319162F013A0319192F19
:100E4800252F0E0E01394101A0000130A035890B74
:100E58002A2F40010E0C4101A100A10C210C0139DF
:100E68002007D30040010E0E890C890C013941017D
:100E7800A0000130A035890B3E2F40010E0D0E0D4C
:100E8800013941012007D2000330D10040010D0E85
:100E9800890C01394101A0000130A035890B512F7F
:100EA80040010D0E013941012007D0000800410121
:100EB800A501A601200821040319632F642F932F8D
:100EC800A701A70A702F0130A035A10D890B682F43
:100ED8000130A4002408A707A11F732F742F672FC0
:100EE8000130A535A60D890B752F21082302031D96
:100EF8007F2F20082202031C822F832F882F20088F
:100F0800A2022108A33B25140130A136A00C890BAD
:100F1800892F0130A702031D922F932F742F2608C3
:100F2800A1002508A0000800F501F6017008710469
:100F380003199F2FA02FCF2FF701F70AAC2F0130ED
:100F4800F035F10D890BA42F0130F4007408F70770
:100F5800F11FAF2FB02FA32F0130F535F60D890BF8
:100F6800B12F71087302031DBB2F70087202031C96
:100F7800BE2FBF2FC42F7008F2027108F33B7514FF
:100F88000130F136F00C890BC52F0130F702031D33
:100F9800CE2FCF2FB02F7608F1007508F00008008B
:100FA80000304101AC000030AD000030AE00261C1E
:100FB800DE2FDF2FE52F2908AC072A08AD3D2B08C7
:100FC800AE3D0130A935AA0DAB0D890BE62F0130D6
:100FD800A836A70CA60C890BEC2F28082704260492
:100FE800031DF72FF82FDB2F2C08A6002D08A700CC
:060FF8002E08A80008000D
:101E040003340334033402344E01971346018E0124
:101E140008004E0198134601920108004E019813E0
:101E24004601920108004E0198138E138830460132
:101E340092004E01981708004E0197138D138430B9
:101E440046018E004E01971708004E0197138D131B
:101E5400843046018E004E01971708008F310B27FE
:101E64008F3140011A15D1018F311E278F3108009F
:101E74004101A00042019E1C402F412F3C2F4101F3
:101E8400200842019A0008006400800101310130F9
:101E9400FE020030FF3B7F087E04031D472F003401
:101EA400FE0012001E000130FE020030FF3B7F08DE
:101EB4007E04031D532F00346C2F21088400220854
:101EC400850000088F313A278F3101304101A10785
:101ED4000030A23D4101210884002208850012003F
:101EE400031D752F762F5F2F08008631A0268F31B2
:101EF40040011A11873105278F31833158238F31DF
:101F04008F3127278F31873105278F3164000230C5
:101F14004101A1009030A2008F315E278F31852FBF
:101F240081315A29F401F501701C992F9A2F9E2FA3
:101F34007208F4077308F53D0130F235F30D890B8F
:101F44009F2F0130F136F00C890BA42F7008710417
:101F5400031DAD2FAE2F962F7508F1007408F00005
:101F640008004101A401A501201CB92FBA2FBE2FDE
:101F74002208A4072308A53D0130A235A30D890B2F
:101F8400BF2F0130A136A00C890BC42F20082104D7
:101F9400031DCD2FCE2FB62F2508A1002408A000A5
:101FA400080000304001A0000030A1000030A20071
:101FB400761CDD2FDE2FE52F79084001A0077A0873
:101FC400A13D7B08A23D0130F935FA0DFB0D890BCB
:101FD400E62F0130F836F70CF60C890BEC2F780855
:101FE40077047604031DF72FF82FDA2F4001200819
:101FF400F6002108F7002208F80008007C34923427
:10200400683465346C346C346F3477340D340A348A
:102014000034DC340534143405344C34043484344E
:102024000334C434093434340834A4340634143442
:10203400053428341E3414340A342D34233419342A
:022044000F3457
:020000040001F9
:04000E00CF3FE93FB8
:04001400FF3FFF3F6C
:00000001FF
