:0400000081317029B1
:100008007E1480314E018D1F0A280B28F3284101E8
:100018006503031D10281128E42844010E108D01E2
:100028008C010E148B31BD23803146010C0E0F3923
:10003800F0000D0EF039F0040D0E0F39F1007C3090
:10004800F2009230F3008D3127258031700841018C
:10005800E60010306602031C322833287E288330DD
:1000680066020318382839287E2866084001C4002B
:10007800C501C435C50D6730C6002230C700440825
:10008800460786004508473D8700403F4101E2009A
:10009800413FE30040011A1141016208F13E40016D
:1000A800C400FF304101633D4001C50045084401DB
:1000B8000D02031D63284001440844010C02031883
:1000C80066286728732841016308460191004101A9
:1000D8006208460190008B31CC23803183288B3114
:1000E800C223803140019A14A030890B792840013D
:1000F8009A1083288B31C223803140011A114001A4
:100108005608031D88288928B728623041016602ED
:10011800031C8F2890289E2801304001C400440801
:10012800D8075803031D99289A28B7288B31E72345
:100138008031B72863306602031CA328A428B0289E
:1001480001304001C4004408D80702305806031D96
:10015800AE28AF28B7289A2864306602031CB52851
:10016800B628B7289A2840015508031DBC28BD2881
:10017800D028563041016602031CC328C428C7286A
:1001880040011814E428533066020318CC28CD28FF
:10019800E42840011810E4285503031DD428D52865
:1001A800E4281F3041016602031CDB28DC28DD2817
:1001B800C4281C3066020318E228E328E428CD2866
:1001C80041016508031DE928EA28F12844018C014A
:1001D8008D010E144101E501E50A4E018D138E1FB4
:1001E800F628F7280C29A030890BF8288B31C22370
:1001F800803140019A108B31D52380311E30410166
:1002080066020318082909290C298131BE21803189
:100218007E013F1D10291129542941016503031D41
:1002280016291729522944010D084101E10044010A
:100238000C084101E0001930660203182429252919
:10024800452961084001C500410160084001C4001A
:10025800C435C50DC435C50D410160087C02400197
:10026800C600410161087D3B4001C70045084702BF
:10027800031D4029440846020318432944294529F7
:100288001A158B31D52380312830410166020318B5
:100298004E294F2952298131BE2180317E013F11DB
:1002A8004E018D1E582959296D294101E501440146
:1002B8000E108C018D0146018C018D019001910178
:1002C8004E018D12400118108B31C223803140013C
:1002D8009A1064007E10090081317229AF308400C1
:1002E80085308500DE308600203087000130FF0031
:1002F80089308C3109248131B93084008B308500F4
:10030800E7308600003087000030FF0004308C3171
:100318000924813167308400223085008930FE004D
:100328000130FF008B31FD238131483084000030DB
:1003380085001130FE000030FF008B31FD23813134
:10034800DC308400003085000B30FE000030FF00F8
:100358008B31FD238131203084000130850020302D
:10036800FE000030FF008B31FD2381317E104001FB
:100378008C31272C41016A081A3E840090300318FA
:10038800013E850000084001BF0041016808163E93
:10039800840090300318013E850000084001A30046
:1003A80041016A081A3E840090300318013E850016
:1003B800000840012307C0003730C1005030C20098
:1003C800F430B7000130B800410169084001A300CA
:1003D800A401A335A40D0830230784001030243D60
:1003E80080388500003FB900013FBA003A08BC00D8
:1003F8003908BB00410167084001A300A401A335E7
:10040800A40D0030230784001030243D8038850077
:10041800003FBD00013FBE003F084002F000F1016F
:10042800031CF10339080C3EF200FE303A3DF3009C
:100438008D312725813170084001B5001930F00051
:100448000030F1003D083B02F2003E083C3BF3005F
:100458008D312725813170084001B6000F30C30067
:100468004C2A4308A300A401A335A40D6730A500B6
:100478002230A6002308250786002408263D870089
:100488003708C03F3808C13F0130A3002308C3071D
:1004980043083F020318512A522A352A3F08013ED1
:1004A800C300872A4308A300A401A335A40D65301F
:1004B800A5002230A6002308250786002408263D2B
:1004C8008700403FA700413FA80035082707A9003B
:1004D80028080318280AAA004308AB00AC01AB356A
:1004E800AC0D6730AD002230AE002B082D0786001A
:1004F8002C082E3D87002908C03F2A08C13F01303B
:10050800A3002308C3074308400203188C2A8D2A36
:10051800562A4008013EC300A82A4308A300A401A4
:10052800A335A40D6730A5002230A60023082507AF
:1005380086002408263D87003B08C03F3C08C13F91
:100548000130A3002308C307430841020318AD2A5A
:10055800AE2A912A4108013EC300E32A4308A300BA
:10056800A401A335A40D6530A5002230A6002308F8
:10057800250786002408263D8700403FA700413F05
:10058800A8002808AA0036082702A900031CAA0305
:100598004308AB00AC01AB35AC0D6730AD00223081
:1005A800AE002B082D0786002C082E3D8700290851
:1005B800C03F2A08C13F0130A3002308C3074308EE
:1005C80042020318E82AE92AB22A4208013EC30077
:1005D80083304302031CF12AF22AF32A0B2B430827
:1005E800A300A401A335A40D6730A5002230A600FE
:1005F8002308250786002408263D87003D08C03FBC
:100608003E08C13F0130A3002308C307EC2A0F307E
:10061800C3006430F0000030F1004308A300A401D7
:10062800A335A40D6730A5002230A60023082507AE
:1006380086002408263D8700403FF200413FF30032
:100648008D312725813170084001A70043086D3E90
:10065800A800A9012330A93D280886002908870099
:10066800270881000130A3002308C3078330430211
:10067800031C3F2B402B0D2B0F30C3004308A30056
:10068800A401A335A40D6730A5002230A6002308D5
:10069800250786002408263D8700AC30A7000D30CA
:1006A800A800403F2702A900413F283BAA00AA36DC
:1006B800A90C2908B2002A08B300B4014308A30012
:1006C800A4012308F0002408F1000330F2000030F0
:1006D800F3008C3190248131DE304001A5002030B8
:1006E800A6007008250786007108263D8700403F50
:1006F800F600413FF700423FF8003208F90033089E
:10070800FA003408FB008C31FA2481317608400164
:10071800A7007708A8007808A9000A30A936A80C0D
:10072800A70C890B922B2708AF002808B0002908CE
:10073800B1004308A300A401A335A40D6730A500A8
:100748002230A6002308250786002408263D8700B6
:100758002F08C03F3008C13F0130A3002308C3075A
:1007680083304302031CB92BBA2B422B08004101EA
:100778006A081A3E840090300318013E850000087C
:10078800CB006808163E840090300318013E8500AF
:100798000008AF006A081A3E840090300318013E32
:1007A800850000082F07CC003730CD005030CE0030
:1007B800F430C3000130C4006908AF00B001AF35A0
:1007C800B00D08302F0784001030303D8038850088
:1007D800003FC500013FC6004608C8004508C700DD
:1007E8006708AF00B001AF35B00D00302F078400A7
:1007F8001030303D80388500003FC900013FCA00F5
:100808004B084C02A000A101031CA10345080C3EA3
:10081800A200FE30463DA3008D316325833141019E
:100828002008C1001930A0000030A1004908470283
:10083800A2004A08483BA3008D316325833141015A
:100848002008C2000F30CF00402C4F08AF00B00185
:10085800AF35B00D6730B1002230B2002F08310734
:1008680086003008323D87004308C03F4408C13F36
:100878000130AF002F08CF074F084B020318452C53
:10088800462C292C4B08013ECF007B2C4F08AF008B
:10089800B001AF35B00D6530B1002230B2002F087D
:1008A800310786003008323D8700403FB300413FA2
:1008B800B40041083307B50034080318340AB600F9
:1008C8004F08B700B801B735B80D6730B900223006
:1008D800BA0037083907860038083A3D87003508D6
:1008E800C03F3608C13F0130AF002F08CF074F087F
:1008F8004C020318802C812C4A2C4C08013ECF0056
:100908009C2C4F08AF00B001AF35B00D6730B10077
:100918002230B2002F08310786003008323D8700A8
:100928004708C03F4808C13F0130AF002F08CF0734
:100938004F084D020318A12CA22C852C4D08013E0E
:10094800CF00D72C4F08AF00B001AF35B00D6530E0
:10095800B1002230B2002F08310786003008323D3E
:100968008700403FB300413FB4003408B600420856
:100978003302B500031CB6034F08B700B801B735FA
:10098800B80D6730B9002230BA0037083907860039
:1009980038083A3D87003508C03F3608C13F013066
:1009A800AF002F08CF074F084E020318DC2CDD2CB0
:1009B800A62C4E08013ECF0083304F02031CE52CC5
:1009C800E62CE72CFF2C4F08AF00B001AF35B00D77
:1009D8006730B1002230B2002F0831078600300896
:1009E800323D87004908C03F4A08C13F0130AF0087
:1009F8002F08CF07E02C0F30CF006430A000003064
:100A0800A1004F08AF00B001AF35B00D6730B1009D
:100A18002230B2002F08310786003008323D8700A7
:100A2800403FA200413FA3008D316325833141013E
:100A38002008B3004F086D3EB400B5012330B53D22
:100A48003408860035088700330881000130AF007C
:100A58002F08CF0783304F02031C332D342D012D6F
:100A68000F30CF004F08AF00B001AF35B00D673081
:100A7800B1002230B2002F08310786003008323D1D
:100A88008700AC30B3000D30B400403F3302B500EE
:100A9800413F343BB600B636B50C3508BE003608C3
:100AA800BF00C0014F08AF00B0012F08A0003008F8
:100AB800A1000330A2000030A3008C31AF248331A1
:100AC800DE304101B1002030B20020083107860035
:100AD8002108323D8700403FA600413FA700423F22
:100AE800A8003E08A9003F08AA004008AB008C31C6
:100AF800CF24833141012608B3002708B400280811
:100B0800B5000A30B536B40CB30C890B862D330802
:100B1800BB003408BC003508BD004F08AF00B00169
:100B2800AF35B00D6730B1002230B2002F08310761
:100B380086003008323D87003B08C03F3C08C13F73
:100B48000130AF002F08CF0783304F02031CAD2DB3
:100B5800AE2D362D08000034003400340034003443
:100B680000340034003400340034003400340034DD
:100B780000340034003400340034003400340034CD
:100B880000340034003400340034003400340034BD
:100B980000340034003400340034003400340034AD
:100BA800003400340034003400340034003400349D
:100BB800E43408340034553408340034D834073465
:100BC8000034683407340034043407340034AB3458
:100BD80006340034593406340034103406340034F2
:100BE800CC34053400348E3405340034553405349F
:100BF8000034213405340034F03404340034C33470
:100C08000434003499340434003472340434003425
:100C18004D34043400342B34043400340A3404349E
:100C28000034EC3403340034CF3403340034B434A7
:100C3800033400349B3403340034823403340034E6
:100C48006B340334003455340334003441340334F2
:100C580000342D34033400341A3403340034083497
:100C680003340034F73402340034E63402340034F8
:100C7800D63402340034C73402340034B934023470
:100C88000034AB34023400349D34023400349034E0
:100C980002340034843402340034783402340034AA
:100CA8006D34023400346234023400345734023470
:100CB80000344D34023400344334023400343934BF
:100CC800023400343034023400342734023400341F
:100CD8001E34023400341534023400340D34023426
:100CE8000034053402340034FD3401340034F63461
:100CF80001340034EF3401340034E8340134003472
:100D0800E13401340034DA3401340034D4340134A9
:100D18000034CD3401340034C73401340034C134D4
:100D280001340034BB3401340034B63401340034A7
:100D3800B03401340034AB3401340034A534013408
:100D48000034A034013400349B3401340034963428
:100D5800013400349234013400348D3401340034C9
:100D6800883401340034843401340034803401344C
:100D780000347B3401340034773401340034733464
:100D8800013400346F34013400346B3401340034DE
:100D9800673401340034643401340034603401347D
:100DA80000345C340134003459340134003455348F
:100DB800013400345234013400344F3401340034E7
:100DC8004B340134003448340134003445340134A0
:100DD80000344234013400343F34013400343C34AC
:100DE80001340034393401340034363401340034E9
:100DF8003434013400343134013400342E340134B5
:100E080000342B34013400342934013400342634BE
:100E180001340034243401340034213401340034E2
:100E28001F34013400341C34013400341A340134C2
:100E380000341834013400341634013400341334C7
:100E4800013400341134013400340F3401340034D7
:100E58000D34013400340B340134003409340134C6
:100E6800003407340134003441016608D300D4014A
:100E780053084001C800410154084001C90041011C
:100E880066086D3E860087012330873D0108D30040
:100E9800D40153084001CA00410154084001CB0065
:100EA800410163084001CD00410162084001CC00C6
:100EB800410161084001CF00410160084001CE00B6
:100EC8000C0801394101D300D40153084001D00076
:100ED800410154084001D10041016508D300D40103
:100EE80053084001D200410154084001D300410198
:100EF800DB011230C1009030C2005B35483E8600ED
:100F08008701403FC300413FC400D5308C31732472
:100F18008731D5304101A1000030A2008C313E2438
:100F2800873101304101D3005308DB0706305B02EB
:100F3800031C9F2FA02F7D2F1E30A1009030A200F0
:100F48008C313E2487310800AE2FD501D50ABE2F3B
:100F5800D501BE2F003040018E1A0130003A031926
:100F6800A92F013A0319AC2FBE2FD601D60AC82FD4
:100F7800D601C82F00300C1A0130003A0319B92FD6
:100F8800013A0319BC2FC82F0E0E01394101A000E8
:100F98000130A035890BCD2F40010E0C4101A10075
:100FA800A10C210C01392007EA0040010E0E890C22
:100FB800890C01394101A0000130A035890BE12FCE
:100FC80040010E0D0E0D013941012007E9000330E3
:100FD800E80040010D0E890C01394101A0000130E3
:100FE800A035890BF42F40010D0E0139410120076E
:060FF800E70008000800FC
:1017720003340334033402344E01971346018E01BD
:1017820008004E0198134601920108004E01981379
:101792004601920108004E0198138E1388304601CB
:1017A20092004E01981708004E0197138D13843052
:1017B20046018E004E01971708004E0197138D13B4
:1017C200843046018E004E01971708008B31C223E8
:1017D2008B3140011A15D8018B31D5238B3108008A
:1017E2004101A00042019E1CF72BF82BF32B410173
:1017F200200842019A000800640080010131013092
:10180200FE020030FF3B7F087E04031DFE2B0034E6
:10181200FE0012001E000130FE020030FF3B7F0876
:101822007E04031D0A2C00344101A81B192C1A2C1A
:101832001B2C262C2709A9002809AA00A90A03198A
:10184200AA0A2908A7002A08A80008008E31A6269D
:101852008C3140011A118731A8278C318331BB2387
:101862008C318B31DE238C318731A8278C31873143
:1018720038278C31352C813170294C2C2108840079
:101882002208850000088B31F1238C31013041019F
:10189200A1070030A23D41012108840022088500F1
:1018A2001200031D552C562C3F2C08004101BE008E
:1018B2003B08C0003A08BF00662CBF30AB003C08B2
:1018C200AC003E088F3110278C3141013F08840063
:1018D200400885001200031D6F2C702C5E2CBA018B
:1018E200BB0108004101C700C330C6004708C80059
:1018F200CA01CB01D101D2014208BB004108BA00A2
:10190200C630BC00C8308C3157248C3141014A08A2
:101912004707C50045088600870181010800F401D8
:10192200F501701C952C962C9A2C7208F4077308FA
:10193200F53D0130F235F30D890B9B2C0130F13668
:10194200F00C890BA02C70087104031DA92CAA2C81
:10195200922C7508F1007408F00008004101A401FE
:10196200A501201CB52CB62CBA2C2208A4072308EA
:10197200A53D0130A235A30D890BBB2C0130A13648
:10198200A00C890BC02C20082104031DC92CCA2CD1
:10199200B22C2508A1002408A00008000030410153
:1019A200AC000030AD000030AE00261CD92CDA2C81
:1019B200E02C2908AC072A08AD3D2B08AE3D0130CA
:1019C200A935AA0DAB0D890BE12C0130A836A70C65
:1019D200A60C890BE72C280827042604031DF22CE9
:1019E200F32CD62C2C08A6002D08A7002E08A80040
:1019F200080000304001A0000030A1000030A20029
:101A0200761C042D052D0C2D79084001A0077A08BB
:101A1200A13D7B08A23D0130F935FA0DFB0D890B82
:101A22000D2D0130F836F70CF60C890B132D7808C2
:101A320077047604031D1E2D1F2D012D4001200861
:101A4200F6002108F7002208F8000800F501F60167
:101A52007008710403192E2D2F2D5E2DF701F70A40
:101A62003B2D0130F035F10D890B332D0130F4009F
:101A72007408F707F11F3E2D3F2D322D0130F53549
:101A8200F60D890B402D71087302031D4A2D700853
:101A92007202031C4D2D4E2D532D7008F202710857
:101AA200F33B75140130F136F00C890B542D0130E3
:101AB200F702031D5D2D5E2D3F2D7608F10075089E
:101AC200F00008004101A501A60120082104031924
:101AD2006B2D6C2D9B2DA701A70A782D0130A03507
:101AE200A10D890B702D0130A4002408A707A11FA6
:101AF2007B2D7C2D6F2D0130A535A60D890B7D2DFB
:101B020021082302031D872D20082202031C8A2D8F
:101B12008B2D902D2008A2022108A33B2514013011
:101B2200A136A00C890B912D0130A702031D9A2D1D
:101B32009B2D7C2D2608A1002508A000080041014C
:101B420022080319A52DA62DAB2D2208031DAA2DAF
:101B5200AB2DB02D20088731FE278D31F12D2208C3
:101B6200093E86008701160001040319B92DBA2D1A
:101B7200D82D2208093E86008701403FA300413F3D
:101B8200A4002208023E86008701403FA500413F93
:101B9200A6002608803AA7002408803A2702031DDF
:101BA200D42D230825020318D72DD82DF12D41015C
:101BB2002208860087012208023E8400850100086F
:101BC2000107A3002308860087012008810022085C
:101BD200023E860087010130810741310318810AE4
:101BE20008004101A601A31FF72DF82DFF2DA20920
:101BF200A309A20A0319A30AA601A60AA11F022E7B
:101C0200032E082EA009A109A00A0319A10A20087F
:101C1200210403190D2E0E2E372EA501A50A1A2E08
:101C22000130A035A10D890B122E0130A400240829
:101C3200A507A11F1D2E1E2E112E21082302031DF2
:101C4200242E20082202031C272E282E2C2E2008A8
:101C5200A2022108A33B0130A136A00C890B2D2E34
:101C62000130A502031D362E372E1E2E260803191B
:101C72003B2E3C2E412EA209A309A20A0319A30A54
:101C82002308A1002208A00008004101A601A11F0B
:101C92004B2E4C2E532EA009A109A00A0319A10A0A
:101CA200A601A60AA31F562E572E602EA209A3092B
:101CB200A20A0319A30A0130A4002408A606A70158
:101CC200A801200821040319672E682E972EA5016A
:101CD200A50A742E0130A035A10D890B6C2E01309E
:101CE200A4002408A507A11F772E782E6B2E0130A1
:101CF200A735A80D890B792E21082302031D832EF7
:101D020020082202031C862E872E8C2E2008A20277
:101D12002108A33B27140130A136A00C890B8D2E7C
:101D22000130A502031D962E972E782E2608031940
:101D32009B2E9C2EA12EA709A809A70A0319A80A5F
:101D42002808A1002708A000080040305101910096
:101D520005309300920140018C018D018E019801A2
:101D620099019A017E01B801C301CE0134304001CC
:101D72009200B0309300F930940034307E01BC0000
:101D8200B030C700F930D200013044019100303048
:101D92008E008C018D0146018F0193018C018D0112
:101DA200900191017E013E1555307D018F00AA30D0
:101DB2008F000F101030A1001130A20002307E01FE
:101DC200A1000F307D01CB0005307E019E00553011
:101DD2007D018F00AA308F000F1442019F019D01E7
:101DE2009E019B019C0140309F0080309D0022306B
:101DF2009E0033309B009C01133050018C004E0139
:101E02008C018D018E018B170B1797179817971658
:101E120016168B31C7238E3140019A1008004101FA
:101E2200B2002B0886008701403FAD00413FAE0063
:101E32002D0884002E0885001200253A031D222F4A
:101E4200232FE72F2B0886008701013081074131BC
:101E52000318810ADC01DD01031000300318013090
:101E6200E400FF30DE00FF30DF002B088600870130
:101E7200403FB300413FB40033088400340885007A
:101E82001200643A0319462F472F512F330884005A
:101E9200340885001200693A031D502F512FDD2F9F
:101EA2002C08860087010108840085010230810721
:101EB200003FB500013FB6003308013EAD000030DF
:101EC200343DAE002B08860087012D08C03F2E0846
:101ED200C13F2030B900B61B6F2F712F0130722F16
:101EE2000030B1000130B9023908203E86000130CD
:101EF20087000A30A0000030A1003608A300350890
:101F0200A2008D31F2258F3141012108A80020085D
:101F1200A7008C3115248F3141012708303E810002
:101F22000A30A0000030A1003608A3003508A20044
:101F32008E3146268F3141012108B6002008B500B6
:101F4200350836040319A62FA72FAC2F3908031D15
:101F5200AB2FAC2F732F39080319B02FB12FD62F07
:101F620031080319B52FB62FD62F0130B90239081F
:101F7200203E8600013087002D308100D62F39089F
:101F8200203E8600013087000108AD00AE012D0819
:101F9200A0002E08A1003208A2008D31A0258F31A9
:101FA20001304101AD002D08B90720303906031D6B
:101FB200DB2FDC2FC02FFF2F41012B08860087016A
:101FC2000130810741310318810AFF2F2B08860057
:101FD2008701403FAD00413FAE002D0884002E082E
:101FE20085000008AF00B0012F08A0003008A10052
:101FF2003208A2008D31A0258F31DD2F0800DC349C
:102002000534143405344C34043484340334C43475
:10201200093434340834A4340634143405347C349A
:102022009234253464342C34003428341E3414346D
:102032000A342D34233419340F340D340A34003465
:020000040001F9
:04000E00CF3FE93FB8
:04001400FF3FFF3F6C
:00000001FF
