:0400000081317A29A7
:1000060008007E1480314E018D1F0A280B28FC281B
:1000160041016503031D10281128ED2844010E1027
:100026008D018C010E148B31B823803146010D08E9
:100036004101E80046010C084101E700670E0F394F
:10004600F000680EF039F004680E0F39F1007C30CC
:10005600F2009230F3008D31112580317008410194
:10006600E60010306602031C39283A2885288330BA
:10007600660203183F284028852866084001C40008
:10008600C501C435C50D6730C6002230C700440817
:10009600460786004508473D8700403F4101E2008C
:1000A600413FE30040011A1141016208F13E40015F
:1000B600C400FF304101633D4001C50045084401CD
:1000C6000D02031D6A284001440844010C0203186E
:1000D6006D286E287A284101630846019100410186
:1000E6006208460190008B31C22380318A288B3109
:1000F600BD23803140019A14A030890B802840012D
:100106009A108A288B31BD23803140011A11400193
:100116005708031D8F289028BF28623041016602C8
:10012600031C96289728A62801304001C4004408DD
:10013600D80702305806031DA128A228BF288B31F4
:10014600DD238031BF2863306602031CAB28AC2850
:10015600B82801304001C4004408D80702305806C8
:10016600031DB628B728BF28A22864306602031CE0
:10017600BD28BE28BF28A22840015608031DC42852
:10018600C528D828563041016602031CCB28CC2846
:10019600CF2840011814FA28533066020318D428D1
:1001A600D528EC2840011810FA285603031DDC2830
:1001B600DD28FA281F3041016602031CE328E428E3
:1001C600E528CC281C3066020318EA28EB28FA2812
:1001D600D528FA286508031DF128F228FA284401D3
:1001E6000E108D018C010E144101E501E50A4E0148
:1001F6008D138E1FFF2800291729A030890B01298E
:100206008B31BD23803140019A108B31CB23803155
:100216001E30410166020318112912291529813160
:10022600C92180314E018E137E013F1D1B291C29D9
:100236005E2941016503031D212922295C29440108
:100246000D084001D50044010C084001D4001930C6
:10025600410166020318302931294F29400155080A
:10026600C5005408C400C435C50DC435C50D5408B1
:10027600410167024001C60055084101683B400143
:10028600C70045084702031D4A29440846020318C9
:100296004D294E294F291A158B31CB238031283011
:1002A600410166020318582959295C298131C9215F
:1002B60080317E013F114E018D1E62296329772907
:1002C6004101E50144010E108D018C0146018C01AE
:1002D6008D01900191014E018D12400118108B3154
:1002E600BD23803140019A1064007E1009008131DF
:1002F6007C29BA30840085308500DE3086002030C7
:1003060087000130FF0089308731F0278131FC30CA
:10031600840087308500E930860000308700003091
:10032600FF0004308731F0278131673084002230A6
:1003360085008930FE000130FF008B31F3238131C7
:10034600FC0148308400003085001130FE0000308A
:10035600FF008B31F3238131DE30840000308500CD
:100366000B30FE000030FF008B31F323813120304B
:100376008400013085002030FE000030FF008B3104
:10038600F32381317E1040018C31112C41016C0820
:100396001A3E840090300318013E85000008400193
:1003A600BF0041016A08163E840090300318013EE2
:1003B600850000084001A30041016C081A3E840034
:1003C60090300318013E8500000840012307C00055
:1003D6003730C1005030C200F430B7000130B800E9
:1003E60041016B084001A300A401A335A40D083008
:1003F600230784001030243D80388500003FB90073
:10040600013FBA003A08BC003908BB00410169083F
:100416004001A300A401A335A40D003023078400E6
:100426001030243D80388500003FBD00013FBE00EE
:100436003F084002F000F101031CF10339080C3EAD
:10044600F200FE303A3DF3008D31112581317008FE
:100456004001B5001930F0000030F1003D083B02C4
:10046600F2003E083C3BF3008D31112581317008C6
:100476004001B6000F30C300572A4308A300A40169
:10048600A335A40D6730A5002230A6002308250752
:1004960086002408263D87003708C03F3808C13F3C
:1004A6000130A3002308C30743083F0203185C2A50
:1004B6005D2A402A3F08013EC300922A4308A30052
:1004C600A401A335A40D6530A5002230A60023089B
:1004D600250786002408263D8700403FA700413FA8
:1004E600A80035082707A90028080318280AAA0023
:1004F6004308AB00AC01AB35AC0D6730AD00223024
:10050600AE002B082D0786002C082E3D87002908F3
:10051600C03F2A08C13F0130A3002308C307430890
:1005260040020318972A982A612A4008013EC30010
:10053600B32A4308A300A401A335A40D6730A50080
:100546002230A6002308250786002408263D8700BA
:100556003B08C03F3C08C13F0130A3002308C30746
:10056600430841020318B82AB92A9C2A4108013EC9
:10057600C300EE2A4308A300A401A335A40D6530E9
:10058600A5002230A6002308250786002408263D5C
:100596008700403FA700413FA8002808AA00360868
:1005A6002702A900031CAA034308AB00AC01AB3524
:1005B600AC0D6730AD002230AE002B082D0786004B
:1005C6002C082E3D87002908C03F2A08C13F01306C
:1005D600A3002308C307430842020318F32AF42A98
:1005E600BD2A4208013EC30083304302031CFC2A95
:1005F600FD2AFE2A162B4308A300A401A335A40D49
:100606006730A5002230A6002308250786002408A7
:10061600263D87003D08C03F3E08C13F0130A3008C
:100626002308C307F72A0F30C3006430F0000030F8
:10063600F1004308A300A401A335A40D6730A5006B
:100646002230A6002308250786002408263D8700B9
:10065600403FF200413FF3008D3111258131700892
:100666004001A70043086D3EA800A9012330A93D1B
:100676002808860029088700270881000130A30082
:100686002308C30783304302031C4A2B4B2B182B2A
:100696000F30C3004308A300A401A335A40D67309F
:1006A600A5002230A6002308250786002408263D3B
:1006B6008700AC30A7000D30A800403F2702A900F4
:1006C600413F283BAA00AA36A90C2908B2002A08ED
:1006D600B300B4014308A300A4012308F0002408D2
:1006E600F1000330F2000030F3008C317A248131BE
:1006F600DE304001A5002030A600700825078600E0
:100706007108263D8700403FF600413FF700423F13
:10071600F8003208F9003308FA003408FB008C317F
:10072600E424813176084001A7007708A8007808FC
:10073600A9000A30A936A80CA70C890B9D2B2708FF
:10074600AF002808B0002908B1004308A300A4019F
:10075600A335A40D6730A5002230A600230825077F
:1007660086002408263D87002F08C03F3008C13F79
:100776000130A3002308C30783304302031CC42BA4
:10078600C52B4D2B080041016C081A3E84009030A1
:100796000318013E85000008CB006A08163E840057
:1007A60090300318013E85000008AF006C081A3E21
:1007B600840090300318013E850000082F07CC0006
:1007C6003730CD005030CE00F430C3000130C400C5
:1007D6006B08AF00B001AF35B00D08302F078400AD
:1007E6001030303D80388500003FC500013FC6000F
:1007F6004608C8004508C7006908AF00B001AF3514
:10080600B00D00302F0784001030303D8038850051
:10081600003FC900013FCA004B084C02A000A101DD
:10082600031CA10345080C3EA200FE30463DA30072
:100836008731B327833141012008C1001930A00058
:100846000030A10049084702A2004A08483BA3001D
:100856008731B327833141012008C2000F30CF0012
:100866004B2C4F08AF00B001AF35B00D6730B1006B
:100876002230B2002F08310786003008323D87004B
:100886004308C03F4408C13F0130AF002F08CF07DF
:100896004F084B020318502C512C342C4B08013EA8
:1008A600CF00862C4F08AF00B001AF35B00D6530D4
:1008B600B1002230B2002F08310786003008323DE1
:1008C6008700403FB300413FB40041083307B500FD
:1008D60034080318340AB6004F08B700B801B73514
:1008E600B80D6730B9002230BA00370839078600DC
:1008F60038083A3D87003508C03F3608C13F013009
:10090600AF002F08CF074F084C0203188B2C8C2CF6
:10091600552C4C08013ECF00A72C4F08AF00B00164
:10092600AF35B00D6730B1002230B2002F08310765
:1009360086003008323D87004708C03F4808C13F5F
:100946000130AF002F08CF074F084D020318AC2C1B
:10095600AD2C902C4D08013ECF00E22C4F08AF0085
:10096600B001AF35B00D6530B1002230B2002F08AE
:10097600310786003008323D8700403FB300413FD3
:10098600B4003408B60042083302B500031CB603AF
:100996004F08B700B801B735B80D6730B900223037
:1009A600BA0037083907860038083A3D8700350807
:1009B600C03F3608C13F0130AF002F08CF074F08B0
:1009C6004E020318E72CE82CB12C4E08013ECF004E
:1009D60083304F02031CF02CF12CF22C0A2D4F0809
:1009E600AF00B001AF35B00D6730B1002230B200B4
:1009F6002F08310786003008323D87004908C03F7E
:100A06004A08C13F0130AF002F08CF07EB2C0F304B
:100A1600CF006430A0000030A1004F08AF00B00145
:100A2600AF35B00D6730B1002230B2002F08310764
:100A360086003008323D8700403FA200413FA300B8
:100A46008731B327833141012008B3004F086D3E3B
:100A5600B400B5012330B53D34088600350887005B
:100A6600330881000130AF002F08CF0783304F02D3
:100A7600031C3E2D3F2D0C2D0F30CF004F08AF002D
:100A8600B001AF35B00D6730B1002230B2002F088B
:100A9600310786003008323D8700AC30B3000D3098
:100AA600B400403F3302B500413F343BB600B63692
:100AB600B50C3508BE003608BF00C0014F08AF00B0
:100AC600B0012F08A0003008A1000330A2000030BA
:100AD600A3008C3199248331DE304101B1002030EE
:100AE600B2002008310786002108323D8700403FCA
:100AF600A600413FA700423FA8003E08A9003F08C4
:100B0600AA004008AB008C31B92483314101260884
:100B1600B3002708B4002808B5000A30B536B40C6F
:100B2600B30C890B912D3308BB003408BC00350883
:100B3600BD004F08AF00B001AF35B00D6730B10052
:100B46002230B2002F08310786003008323D870078
:100B56003B08C03F3C08C13F0130AF002F08CF071C
:100B660083304F02031CB82DB92D412D08000034E7
:100B760000340034003400340034003400340034CF
:100B860000340034003400340034003400340034BF
:100B960000340034003400340034003400340034AF
:100BA600003400340034003400340034003400349F
:100BB600003400340034003400340034003400348F
:100BC6000034003400340034E4340834003455343E
:100BD60008340034D8340734003468340734003419
:100BE600043407340034AB34063400345934063444
:100BF6000034103406340034CC34053400348E34DA
:100C060005340034553405340034213405340034B9
:100C1600F03404340034C3340434003499340434D6
:100C260000347234043400344D34043400342B342C
:100C3600043400340A3404340034EC34033400340D
:100C4600CF3403340034B434033400349B340334D7
:100C560000348234033400346B34033400345534A6
:100C6600033400344134033400342D340334003467
:100C76001A3403340034083403340034F7340234AD
:100C86000034E63402340034D63402340034C73437
:100C960002340034B93402340034AB340234003444
:100CA6009D340234003490340234003484340234E7
:100CB60000347834023400346D3402340034623443
:100CC600023400345734023400344D3402340034D4
:100CD60043340234003439340234003430340234BC
:100CE60000342734023400341E3402340034153400
:100CF600023400340D340234003405340234003436
:100D0600FD3401340034F63401340034EF34013458
:100D16000034E83401340034E13401340034DA3488
:100D260001340034D43401340034CD340134003479
:100D3600C73401340034C13401340034BB340134C7
:100D46000034B63401340034B03401340034AB34EA
:100D560001340034A53401340034A03401340034A5
:100D66009B34013400349634013400349234013417
:100D760000348D3401340034883401340034843432
:100D8600013400348034013400347B3401340034BF
:100D96007734013400347334013400346F34013451
:100DA60000346B3401340034673401340034643465
:100DB600013400346034013400345C3401340034CE
:100DC600593401340034553401340034523401347A
:100DD60000344F34013400344B3401340034483489
:100DE60001340034453401340034423401340034D3
:100DF6003F34013400343C34013400343934013496
:100E0600003436340134003434340134003431349F
:100E1600013400342E34013400342B3401340034D0
:100E260029340134003426340134003424340134A6
:100E360000342134013400341F34013400341C34AE
:100E4600013400341A3401340034183401340034C7
:100E560016340134003413340134003411340134AF
:100E660000340F34013400340D34013400340B34B3
:100E760001340034093401340034073401340034B9
:100E860041016608D300D40153084001C80041015E
:100E960054084001C900410166086D3E860087017D
:100EA6002330873D0108D300D40153084001CA000E
:100EB600410154084001CB00410163084001CD00C7
:100EC600410162084001CC00410168084001CF00A1
:100ED600410167084001CE000C0801394101D300E9
:100EE600D40153084001D000410154084001D1000B
:100EF60041016508D300D40153084001D2004101E5
:100F060054084001D3004101DD011230C100903088
:100F1600C2005D35483E86008701403FC300413F21
:100F2600C400D5308C315D248731D5304101A10014
:100F36000030A2008C312824873101304101D300D2
:100F46005308DD0706305D02031CAA2FAB2F882F3E
:100F56001E30A1009030A2008C3128248731080071
:100F66004101A501A601200821040319BB2FBC2FAE
:100F7600EB2FA701A70AC82F0130A035A10D890BB9
:100F8600C02F0130A4002408A707A11FCB2FCC2F08
:100F9600BF2F0130A535A60D890BCD2F21082302C1
:100FA600031DD72F20082202031CDA2FDB2FE02F88
:100FB6002008A2022108A33B25140130A136A00C6B
:100FC600890BE12F0130A702031DEA2FEB2FCC2F4F
:100FD6002608A1002508A0000800FE0012001E0039
:100FE6000130FE020030FF3B7F087E04031DF12F17
:0A0FF60000340334033403340234E2
:101770004E01971346018E0108004E019813460151
:10178000920108004E0198138E1388304601920092
:101790004E01981708004E0197138D1384304601AF
:1017A0008E004E01971708004E0197138D13843059
:1017B00046018E004E01971708008B31BD238B31F7
:1017C00040011A15D8018B31CB238B310800410120
:1017D000A00042019E1CED2BEE2BE92B41012008BD
:1017E00042019A0008006400800101310130FE02CC
:1017F0000030FF3B7F087E04031DF42B00344101C1
:10180000A81B032C042C052C102C2709A90028093F
:10181000AA00A90A0319AA0A2908A7002A08A800E9
:1018200008008E31A9268C3140011A118D31F32523
:101830008C318331C6238C318B31D4238C318D3163
:10184000F3258C31873143278C311F2C81317A2944
:10185000362C210884002208850000088B31E723FC
:101860008C3101304101A1070030A23D4101210826
:101870008400220885001200031D3F2C402C292CD7
:1018800008004101BE003B08C0003A08BF00502CD0
:10189000BF30AB003C08AC003E088F3110278C31C4
:1018A00041013F088400400885001200031D592CA7
:1018B0005A2C482CBA01BB0108004101C700C330B3
:1018C000C6004708C800CA01CB01D101D2014208B5
:1018D000BB004108BA00C630BC00C8308C3141247E
:1018E0008C3141014A084707C50045088600870139
:1018F00081010800F401F501701C7F2C802C842CE0
:101900007208F4077308F53D0130F235F30D890BC9
:10191000852C0130F136F00C890B8A2C700871048B
:10192000031D932C942C7C2C7508F1007408F00096
:1019300008004101A401A501201C9F2CA02CA42C6F
:101940002208A4072308A53D0130A235A30D890B69
:10195000A52C0130A136A00C890BAA2C200821044B
:10196000031DB32CB42C9C2C2508A1002408A00036
:10197000080000304101AC000030AD000030AE0086
:10198000261CC32CC42CCA2C2908AC072A08AD3D40
:101990002B08AE3D0130A935AA0DAB0D890BCB2C20
:1019A0000130A836A70CA60C890BD12C28082704D7
:1019B0002604031DDC2CDD2CC02C2C08A6002D08D1
:1019C000A7002E08A800080000304001A000003049
:1019D000A1000030A200761CEE2CEF2CF62C79082A
:1019E0004001A0077A08A13D7B08A23D0130F935EE
:1019F000FA0DFB0D890BF72C0130F836F70CF60CBD
:101A0000890BFD2C780877047604031D082D092D19
:101A1000EB2C40012008F6002108F7002208F8000E
:101A20000800F501F601700871040319182D192D2D
:101A3000482DF701F70A252D0130F035F10D890BFE
:101A40001D2D0130F4007408F707F11F282D292DF2
:101A50001C2D0130F535F60D890B2A2D7108730206
:101A6000031D342D70087202031C372D382D3D2DB7
:101A70007008F2027108F33B75140130F136F00C76
:101A8000890B3E2D0130F702031D472D482D292DCE
:101A90007608F1007508F0000800410122080319DA
:101AA000522D532D582D2208031D572D582D5D2DD5
:101AB0002008803103208D319E2D2208093E8600AA
:101AC0008701160001040319662D672D852D220854
:101AD000093E86008701403FA300413FA400220841
:101AE000023E86008701403FA500413FA600260830
:101AF000803AA7002408803A2702031D812D23087D
:101B000025020318842D852D9E2D41012208860073
:101B100087012208023E8400850100080107A30016
:101B2000230886008701200881002208023E8600E3
:101B300087010130810741310318810A0800410102
:101B4000A601A31FA42DA52DAC2DA209A309A20AAD
:101B50000319A30AA601A60AA11FAF2DB02DB52D0A
:101B6000A009A109A00A0319A10A20082104031948
:101B7000BA2DBB2DE42DA501A50AC72D0130A03536
:101B8000A10D890BBF2D0130A4002408A507A11FBA
:101B9000CA2DCB2DBE2D21082302031DD12D2008D7
:101BA0002202031CD42DD52DD92D2008A2022108F4
:101BB000A33B0130A136A00C890BDA2D0130A50220
:101BC000031DE32DE42DCB2D26080319E82DE92D67
:101BD000EE2DA209A309A20A0319A30A2308A10052
:101BE0002208A0000800F92DD601D60A092ED60138
:101BF000092E003040018E1A0130003A0319F42DED
:101C0000013A0319F72D092ED701D70A132ED70150
:101C1000132E00300C1A0130003A0319042E013A39
:101C20000319072E132E0E0E01394101A0000130B9
:101C3000A035890B182E40010E0C4101A100A10C0A
:101C4000210C01392007EC0040010E0E890C890C93
:101C500001394101A0000130A035890B2C2E400133
:101C60000E0D0E0D013941012007EB000330EA0093
:101C700040010D0E890C01394101A0000130A03551
:101C8000890B3F2E40010D0E013941012007E9006B
:101C900008004101A601A11F4E2E4F2E562EA0096D
:101CA000A109A00A0319A10AA601A60AA31F592E79
:101CB0005A2E632EA209A309A20A0319A30A01300E
:101CC000A4002408A606A701A801200821040319DE
:101CD0006A2E6B2E9A2EA501A50A772E0130A0350B
:101CE000A10D890B6F2E0130A4002408A507A11FA8
:101CF0007A2E7B2E6E2E0130A735A80D890B7C2EF7
:101D000021082302031D862E20082202031C892E8F
:101D10008A2E8F2E2008A2022108A33B271401300F
:101D2000A136A00C890B902E0130A502031D992E1F
:101D30009A2E7B2E260803199E2E9F2EA42EA709CD
:101D4000A809A70A0319A80A2808A1002708A000C3
:101D5000080040305101910005309300920140018C
:101D60008C018D018E01980199019A017E01B801C3
:101D7000C301CE01343040019200B0309300F930FD
:101D8000940034307E01BC00B030C700F930D2007E
:101D900001304401910030308E008C018D014601EC
:101DA0008F0193018C018D01900191017E013E15FF
:101DB00055307D018F00AA308F000F101030A10028
:101DC0001130A20002307E01A1000F307D01CB0056
:101DD00005307E019E0055307D018F00AA308F00B6
:101DE0000F1442019F019D019E019B019C01403007
:101DF0009F0080309D0026309E0022309B009C0179
:101E0000133050018C004E018C018D018E018B1717
:101E10000B17971798179716161640019A10080077
:101E20004101B2002B0886008701403FAD00413FD1
:101E3000AE002D0884002E0885001200253A031DEF
:101E4000222F232FE72F2B088600870101308107DF
:101E500041310318810ADE01DF010310003003184D
:101E60000130E400FF30E000FF30E1002B08860085
:101E70008701403FB300413FB40033088400340879
:101E800085001200643A0319462F472F512F33085B
:101E90008400340885001200693A031D502F512F29
:101EA000DD2F2C088600870101088400850102309F
:101EB0008107003FB500013FB6003308013EAD0089
:101EC0000030343DAE002B08860087012D08C03F4E
:101ED0002E08C13F2030B900B61B6F2F712F013083
:101EE000722F0030B1000130B9023908203E86005F
:101EF000013087000A30A0000030A1003608A3009E
:101F00003508A2008D319F258F3141012108A8009D
:101F10002008A7008B31FF238F3141012708303E75
:101F200081000A30A0000030A1003608A300350867
:101F3000A2008E3149268F3141012108B6002008C8
:101F4000B500350836040319A62FA72FAC2F390882
:101F5000031DAB2FAC2F732F39080319B02FB12FEE
:101F6000D62F31080319B52FB62FD62F0130B9025D
:101F70003908203E8600013087002D308100D62FA1
:101F80003908203E8600013087000108AD00AE010F
:101F90002D08A0002E08A1003208A2008D314D2589
:101FA0008F3101304101AD002D08B90720303906CD
:101FB000031DDB2FDC2FC02FFF2F41012B088600D4
:101FC00087010130810741310318810AFF2F2B0857
:101FD00086008701403FAD00413FAE002D088400E0
:101FE0002E0885000008AF00B0012F08A0003008BF
:101FF000A1003208A2008D314D258F31DD2F080060
:10200000DC340534143405344C340434843403345F
:10201000C434093434340834A43406341434053454
:102020007C349234253464342C34003428341E3407
:1020300014340A342D34233419340F340D340A3453
:0220400000346A
:020000040001F9
:04000E00CF3FE93FB8
:04001400FF3FFF3F6C
:00000001FF
